:020000040800F2
:1000000000C00020910100088D0100088D0100084A
:100010008D0100088D0100088D0100088D01000888
:100020008D0100088D0100088D0100088D01000878
:100030008D0100088D0100088D0100088D01000868
:100040008D0100088D0100088D0100088D01000858
:100050008D0100088D0100088D0100088D01000848
:100060008D0100088D0100088D0100088D01000838
:100070008D0100088D0100088D0100088D01000828
:100080008D0100088D0100088D0400088D01000815
:100090008D0100088D0100088D0100088D01000808
:1000A0008D0100088D0100088D0100088D010008F8
:1000B0008D0100088D0100088D0100088D010008E8
:1000C0008D0100088D0100088D0100088D010008D8
:1000D0008D0100088D0100083D0A00088D0100080F
:1000E0008D0100088D0100088D0100088D010008B8
:1000F0008D0100088D0100088D0100088D010008A8
:100100008D0100088D0100088D0100088D01000897
:100110008D0100088D0100088D0100088D01000887
:100120008D0100088D0100088D0100088D01000877
:100130008D0100088D0100088D0100088D01000867
:100140008D0100088D0100088D0100088D01000857
:100150008D0100088D0100088D0100088D01000847
:100160008D0100088D0100088D0100088D01000837
:100170008D0100088D0100088D0100088D01000827
:100180008D0100088D0100088D010008FEE700BF09
:100190000B480C4A801A07D00B4B184413F8011B6C
:1001A00002F8011B9842F9D1084A094B9A4218BF3C
:1001B000002103D003F8011B9342FBD100F006BDE0
:1001C0000000002000000020600D0008D00000208A
:1001D00000000020044A136843F470031360BFF367
:1001E0004F8FBFF36F8F704788ED00E0054B0649D6
:1001F000002203F1140043F8042B834241F8042B3E
:10020000F9D1704704000020180000201A4BDFEDE0
:100210001B6A1B49DFED1B7A9FED1B7A30B41B4D27
:1002200083ED000A20EE260A03F110042A4601F1AC
:100230001400043292ED006AD3ED016A043367EED4
:10024000C67AA342E6EE877A30EE270A04D0B1ECF4
:10025000017AF0EC017AECE70D4A85ED000AA3F192
:10026000100453F8040D52F8041D5860A342516065
:10027000F7D130BC704700BF0400002029159E3B19
:10028000540C00080DA617C095159E3C18000020C0
:1002900028000020704700BF0E4A0F4913680F481E
:1002A00023F0807313600860136843F08073136059
:1002B00013689B01FCD50A4B0A491A6822F0070211
:1002C0001A601A6842F004021A600B6843F00303D4
:1002D0000B607047001002400C1002400150620396
:1002E00000200240081002400749084B0A6842F00B
:1002F00002020A601A6842F040021A601A6822F08C
:1003000080021A60704700BF4C1002400004004891
:1003100030B4104D10482A681049114B4FF09044EA
:1003200042F001022A60226842F4407222600268B0
:1003300042F0005202600A6822F000520A601A6815
:1003400022F001021A601A6842F001021A6030BC01
:10035000704700BF4C100240581002403810024055
:1003600000740040374B384A1968F0B541F001017C
:100370004FF0904719603968344E354C354D41F097
:10038000C0013960316841F040513160196841F471
:10039000005119602368002723F400534FF48006AE
:1003A0004FF08051236017602E601160136843F096
:1003B0000043136013682449002BFBDB264C274ABB
:1003C0002368274F274E284DDFF8B8E043F001039C
:1003D00023601368254C23F0010313604FF0804322
:1003E00000221A603A6032602026214AB2FBF0F007
:1003F0002860CEF8006022681E4F1F4E1F4D204817
:10040000DFF884E042F0010222601A6842F0100234
:100410001A601A6842F001021A6004234FF4007255
:10042000C7F800E032602B60036843F48023036068
:100430000B6843F001030B600B6843F004030B608F
:10044000F0BD00BF4C10024008000450881002406C
:100450002C1002400803045058100240381002408B
:1004600010000040280000402C0000401400004014
:1004700000B4C4040C0004503000045004000450C4
:1004800000E100E004000040C01600802A48DFEDD3
:100490002B5A03689FED2A7A2A4A2B499FED2B6A33
:1004A000DFED2B6AF0B443F008032A4F03602A4CB7
:1004B0002A4E2B4D08233B60D4ED007AF8EE677A84
:1004C000134677EEE57A02F1100477EEA55AC6EDF1
:1004D000007A25EE877AC2ED005A01F114002A460F
:1004E0000432D2ED007AD3ED015A043367EEC67AB6
:1004F000A342E5EEA67A37EE277A04D0F1EC016A42
:10050000B0EC016AECE7174A85ED007AA3F110041C
:1005100053F8040D52F8041D58609C425160F7D105
:10052000114B054ABDEEC77AF0BC83ED007A136823
:1005300023F00803136070471404004800000045CE
:1005400029159E3B04000020540C00080DA617C07E
:1005500095159E3C0000045040000450000000200F
:10056000180000202800002008740040014B18608B
:10057000704700BF0874004008B54C4800F0B4FA5A
:1005800000F0AAFA0028FBD1494800F0ADFA494B27
:10059000186800F0FBFA00F09FFA0028FBD14648EB
:1005A00000F0A2FA454B186800F0F0FA00F094FA57
:1005B0000028FBD1424800F097FA424B186800F03F
:1005C000E5FA00F089FA0028FBD13F4800F08CFAE8
:1005D0003E4B186800F0DAFA00F07EFA0028FBD1F2
:1005E0003B4800F081FA3B4B186800F0CFFA00F06E
:1005F00073FA0028FBD1384800F076FA374B1868B8
:1006000000F0C4FA00F068FA0028FBD1344800F08A
:100610006BFA344B186800F0B9FA00F05DFA002864
:10062000FBD1314800F060FA4FF08043186800F0C9
:10063000ADFA00F051FA0028FBD12C4800F054FA32
:100640002B4B186800F0A2FA00F046FA0028FBD104
:10065000284800F049FA284B186800F097FA00F093
:100660003BFA0028FBD1254800F03EFA244B1868DD
:1006700000F08CFA00F030FA0028FBD1214800F09D
:1006800033FA214B186800F081FA00F025FA0028AF
:10069000FBD11E4800F028FA1D4B186800F076FACE
:1006A00000F01AFA0028FBD108BD00BF740C000846
:1006B0009C0C000800000450AC0C0008040004501E
:1006C000BC0C000808000450C80C00080C000450C2
:1006D000D80C000810000450E80C0008400004503A
:1006E000F40C000830000450040D0008140D00083C
:1006F00004000040240D000808000040340D0008EC
:100700000C000040440D000810000040500D00088F
:10071000142C0140174B1B6843B3012824D0164A00
:10072000936C0BB3F0B500240138A4464F1E9646D7
:1007300002E0DEF848309BB1013472B6566C751C8D
:10074000013B402D5564965D08BFCEF844C09364CC
:1007500062B6844207F8016FEBD100230B54F0BD61
:10076000204600230B54F0BD002070474FF0FF30AF
:10077000704700BFC800002030000020284B1B68D5
:10078000002B47D0274B9A6CF0B5C2F1400484424D
:1007900043D3E0B15F6C08449C464FF0000E0DE07F
:1007A00072B6651C0132402D1D649A641E5508BF47
:1007B000CCF840E062B6814209D09A6C1C6C11F80A
:1007C000016BBC42ECD1002AEAD08142F5D1164936
:1007D0000A6812F008021BD108689C6C114D40F0A9
:1007E000080008601CB9114B00201A60F0BD72B6F9
:1007F000686C411C402904F1FF346964285C08BF1F
:100800006A649C6462B6094B02461A600020F0BD1F
:100810000020F0BD4FF0FF3070476FF00100F0BDD9
:10082000C80000207C000020004400402844004014
:100830002DE9F04372B6414BDFF834814049DFF8CF
:10084000349199FBF0F04FF00109C3F800900023B8
:100850000B60D8F800103B4CDFF81CC1A36441EAE0
:100860000901C8F80010DCF80010636441F400319D
:10087000CCF800104FF0904123640C68DFF8FCE0E6
:10088000314ACEF8483044F0004444F020040C6073
:100890000C68CEF8443024F080440C600C68CEF82C
:1008A000403024F010040C601468284E284D294F65
:1008B000294944F0804444F010041460146824F082
:1008C00000441460146824F0200414603268234C3F
:1008D00042F4E0623260326822F4006232602A68D8
:1008E0001F4E42F040522A602A6822F040422A609D
:1008F0003A681C4D22F400323A600B60236033608A
:1009000028600B681848194A43F064030B600B68B1
:1009100004F53F44FC3443EA09030B60236843F0C9
:1009200000632360036843F000630360136843F0CF
:100930004003136062B6BDE8F08300BFC80000202A
:100940002C000020300000200C000048200000484F
:100950002400004838100240004400400444004095
:10096000084400400C4400400404014004E100E05D
:100970004C10024000B4C404581002407C00002017
:10098000104B114A596C186C1268884210B4D2B2DC
:10099000996C0ED072B6441C01311A541C64402C60
:1009A0009964084B04BF00221A6462B65DF8044BD8
:1009B00070470029EED0054B5DF8044B01221A6008
:1009C000704700BF30000020244400402C0000206D
:1009D000154B9A6C82B172B6586C411C402959640F
:1009E00002F1FF3208BF0021185C08BF59649A6405
:1009F00062B60E4B186070470D4A0E49136823F01B
:100A0000080313600B68590603D5136A43F04003CB
:100A10001362084B1B681B0604D5074A136843F092
:100A200010031360704700BF7C0000202844004082
:100A3000004400401C4400401844004008B5084BE6
:100A40001B681A0608D4064B1B689B0600D408BD19
:100A5000BDE80840FFF794BFFFF7BAFFF3E700BF18
:100A60001C440040436C026C9A4210B4836C0ED05C
:100A700072B6541C0133402C04648154836404BF57
:100A80000023036462B600205DF8044B7047002B1E
:100A9000EED001205DF8044B704700BF836C73B14A
:100AA00072B6416C4A1C402A426408BF0022415C75
:100AB00008BF42645A1E826462B6084670471846F0
:100AC000704700BF806C7047024B986C003018BFB5
:100AD0000120704730000020024B1868C0F3C000AE
:100AE000704700BF004400400A4B1B687BB103788D
:100AF000014653B110B54C1C0120FFF73FFE23788F
:100B00002146002BF7D1002010BD002070474FF088
:100B1000FF307047C8000020174B1B683BB301290A
:100B200028DD164BF0B500244F1E9C46A646461EF7
:100B30009A6C02B9FEE772B65D6C691C013A4029F5
:100B400059645D5D08BFCCF844E09A6462B6013434
:100B5000A74206F8015F02D00D2DE9D12746002FEC
:100B600003DD0023C3553846F0BD3846F0BD4FF0D5
:100B7000FF30704700207047C80000203000002080
:100B8000092894BF30303730C0B2704700B585B007
:100B900000238DF80C3001A903AA00F00F03092BE4
:100BA000D4BF3033373302F8013D8A424FEA101088
:100BB000F3D11046FFF798FF05B05DF804FB00BFC6
:0C0BC000014B986C704700BF3000002013
:100BCC0008B5FFF763FB184A136843F4700313600E
:100BDC00BFF34F8FBFF36F8F144B1549002203F1F6
:100BEC00140043F8042B834241F8042BF9D111492A
:100BFC00114B0A6842F002020A601A6842F0400285
:100C0C001A601A6822F080021A604FF41650FFF72F
:100C1C0009FEFFF777FB0948FFF79EFB62B6FFF76B
:100C2C00A5FC30BFFDE700BF88ED00E0040000200C
:100C3C00180000204C10024000040048400D030036
:100C4C0029159E3B95159E3C5F20ED3C95159E3CD1
:100C5C0029159E3B0000803F0DA617C06A18144052
:080C6C006DFF86BF8BE03F3EE7
:100C7400526561647920746F2066696C74657221B1
:100C84002020446961676E6F737469637320666FB3
:100C94006C6C6F773A0D0A000D0A414443315F4989
:100CA40053523A20000000000D0A414443315F4989
:100CB40045523A20000000000D0A414443315F438D
:100CC400523A20000D0A414443315F434647523AA9
:100CD400200000000D0A414443315F43464752322D
:100CE4003A2000000D0A414443315F44523A200047
:100CF4000D0A414443315F535152313A2000000000
:100D04000D0A54494D325F4352313A20000000002D
:100D14000D0A54494D325F4352323A20000000001C
:100D24000D0A54494D325F534D43523A200000009E
:100D34000D0A54494D325F444945523A200000009F
:100D44000D0A54494D325F53523A20000D0A54495A
:0C0D54004D315F4547523A20000000007E
:0400000508000000EF
:00000001FF
