:020000040800F2
:1000000000C00020910100088D0100088D0100084A
:100010008D0100088D0100088D0100088D01000888
:100020008D0100088D0100088D0100088D01000878
:100030008D0100088D0100088D0100088D01000868
:100040008D0100088D0100088D0100088D01000858
:100050008D0100088D0100088D0100088D01000848
:100060008D0100088D0100088D0100088D01000838
:100070008D0100088D0100088D0100088D01000828
:100080008D0100088D010008890400088D01000819
:100090008D0100088D0100088D0100088D01000808
:1000A0008D0100088D0100088D0100088D010008F8
:1000B0008D0100088D0100088D0100088D010008E8
:1000C0008D0100088D0100088D0100088D010008D8
:1000D0008D0100088D010008290A00088D01000823
:1000E0008D0100088D0100088D0100088D010008B8
:1000F0008D0100088D0100088D0100088D010008A8
:100100008D0100088D0100088D0100088D01000897
:100110008D0100088D0100088D0100088D01000887
:100120008D0100088D0100088D0100088D01000877
:100130008D0100088D0100088D0100088D01000867
:100140008D0100088D0100088D0100088D01000857
:100150008D0100088D0100088D0100088D01000847
:100160008D0100088D0100088D0100088D01000837
:100170008D0100088D0100088D0100088D01000827
:100180008D0100088D0100088D010008FEE700BF09
:100190000B480C4A801A07D00B4B184413F8011B6C
:1001A00002F8011B9842F9D1084A094B9A4218BF3C
:1001B000002103D003F8011B9342FBD100F0F8BCEF
:1001C0000000002000000020440D0008D0000020A6
:1001D00000000020044A136843F470031360BFF367
:1001E0004F8FBFF36F8F704788ED00E0054B0649D6
:1001F000002203F1140043F8042B834241F8042B3E
:10020000F9D1704704000020180000201A49DFEDE2
:100210001B6A1B481B4ADFED1C7A9FED1C7A30B429
:1002200081ED000A20EE260A0B4601F1100500F1CF
:100230001404B2EC016AD3ED016A043367EEC67AA6
:10024000AB42E6EE877A30EE270A04D0B0EC017AB2
:10025000F4EC017AEDE70E4A10EE100A42F8140BA6
:1002600053F8044D52F8080C5C608B4242F8040DC0
:10027000F6D130BC704700BF0400002029159E3B1A
:10028000380C00081C0000200DA617C095159E3CD8
:1002900018000020704700BF0E4A0F4913680F482E
:1002A00023F0807313600860136843F08073136059
:1002B00013689B01FCD50A4B0A491A6822F0070211
:1002C0001A601A6842F004021A600B6843F00303D4
:1002D0000B607047001002400C1002400150620396
:1002E00000200240081002400749084B0A6842F00B
:1002F00002020A601A6842F040021A601A6822F08C
:1003000080021A60704700BF4C1002400004004891
:1003100030B4104D10482A681049114B4FF09044EA
:1003200042F001022A60226842F4407222600268B0
:1003300042F0005202600A6822F000520A601A6815
:1003400022F001021A601A6842F001021A6030BC01
:10035000704700BF4C100240581002403810024055
:1003600000740040364B374A1968F0B541F001017E
:100370004FF0904719603968334E344C344D41F09A
:10038000C0013960316841F040513160196841F471
:10039000005119602368002723F400534FF48006AE
:1003A0004FF08051236017602E601160136843F096
:1003B000004313601368002BFCDB264C264923689E
:1003C000264F274E274DDFF8B8E043F001032360A6
:1003D0000B68254C23F001030B604FF08043002194
:1003E00019603960316020262049B1FBF0F02860A7
:1003F000CEF8006021681E4F1E4E1F4D1F48DFF8CB
:1004000084E041F001012160196841F01001196098
:10041000196841F00101196004234FF40071C7F815
:1004200000E031602B60036843F4802303601368AD
:1004300043F001031360136843F004031360F0BD3D
:100440004C10024008000450881002402C1002405A
:1004500008030450581002403810024010000040B9
:10046000280000402C0000401400004000B4C404E8
:100470000C000450300004500400045000E100E07F
:1004800004000040C0160080F0B42A4C2A4F2368B4
:100490002A4EDFED2B5A9FED2B7A2B482B4D2C4902
:1004A000DFED2C7ADFED2C6A2C4A43F00803236041
:1004B00008233B6096ED006AB8EE466A044636EEC5
:1004C000656A034676EE255A85ED006A25EE877A41
:1004D000C0ED005A00F1100501F11400F2EC015AD0
:1004E00093ED016A043367EEE57AAB42E6EE267AD5
:1004F00037EE277A04D0F1EC016AF0EC017AEDE7EF
:10050000174A17EE101A42F8141B53F8040D52F84C
:10051000081C58609C4242F8041DF6D1114B054A54
:10052000BDEEC77AF0BC83ED007A136823F00803B0
:100530001360704714040048000004504000045049
:100540000000004529159E3B04000020000000200B
:10055000380C00080DA617C095159E3C1C00002005
:100560001800002008740040014B1860704700BF5D
:100570000874004008B54C4800F0AAFA00F0A0FA50
:100580000028FBD1494800F0A3FA494B186800F055
:10059000EDFA00F095FA0028FBD1464800F098FAF1
:1005A000454B186800F0E2FA00F08AFA0028FBD107
:1005B000424800F08DFA424B186800F0D7FA00F07C
:1005C0007FFA0028FBD13F4800F082FA3E4B1868C2
:1005D00000F0CCFA00F074FA0028FBD13B4800F0A0
:1005E00077FA3B4B186800F0C1FA00F069FA00286E
:1005F000FBD1384800F06CFA374B186800F0B6FAB7
:1006000000F05EFA0028FBD1344800F061FA344B68
:10061000186800F0ABFA00F053FA0028FBD131481B
:1006200000F056FA4FF08043186800F09FFA00F08F
:1006300047FA0028FBD12C4800F04AFA2B4B1868E7
:1006400000F094FA00F03CFA0028FBD1284800F0B2
:100650003FFA284B186800F089FA00F031FA0028B8
:10066000FBD1254800F034FA244B186800F07EFADC
:1006700000F026FA0028FBD1214800F029FA214B8E
:10068000186800F073FA00F01BFA0028FBD11E482E
:1006900000F01EFA1D4B186800F068FA00F010FA1E
:1006A0000028FBD108BD00BF580C0008800C0008D2
:1006B00000000450900C000804000450A00C000836
:1006C00008000450AC0C00080C000450BC0C0008DE
:1006D00010000450CC0C000840000450D80C000856
:1006E00030000450E80C0008F80C0008040000403A
:1006F000080D000808000040180D00080C0000401C
:10070000280D000810000040340D0008142C014092
:10071000154B1B682BB3013820D0144B9A6CF2B1E7
:10072000F0B58E46002421460EF1FF3701E09A6CA9
:100730007AB1013472B65E6C751C013A402D5D646D
:100740009E5D08BF59649A6462B6844207F8016FDF
:10075000EDD100230EF804302046F0BD704710465E
:1007600070474FF0FF307047C80000203000002075
:10077000274B1B68002B45D0264B9A6CF0B5C2F175
:100780004004844241D3D8B15F6C08444FF0000E5E
:100790000DE072B6651C0132402D1D649A641E5531
:1007A00008BFC3F840E062B6884209D09A6C1C6C5E
:1007B00011F8016BBC42ECD1002AEAD08842F5D195
:1007C00015490A6812F008021AD108689C6C40F0BA
:1007D000080008601CB9114B00201A60F0BD72B609
:1007E000586C411C402904F1FF345964185C08BF5F
:1007F0005A649C6462B6094B02461A600020F0BD40
:100800000020F0BD4FF0FF3070476FF00100F0BDE9
:10081000C80000207C000020004400402844004024
:100820002DE9F04372B6414BDFF834814049DFF8DF
:10083000349199FBF0F04FF00109C3F800900023C8
:100840000B60D8F800103B4CDFF81CC1A36441EAF0
:100850000901C8F80010DCF80010636441F40031AD
:10086000CCF800104FF0904123640C68DFF8FCE0F6
:10087000314ACEF8483044F0004444F020040C6083
:100880000C68CEF8443024F080440C600C68CEF83C
:10089000403024F010040C601468284E284D294F75
:1008A000294944F0804444F010041460146824F092
:1008B00000441460146824F0200414603268234C4F
:1008C00042F4E0623260326822F4006232602A68E8
:1008D0001F4E42F040522A602A6822F040422A60AD
:1008E0003A681C4D22F400323A600B60236033609A
:1008F00028600B681848194A43F064030B600B68C2
:1009000004F53F44FC3443EA09030B60236843F0D9
:1009100000632360036843F000630360136843F0DF
:100920004003136062B6BDE8F08300BFC80000203A
:100930002C000020300000200C000048200000485F
:1009400024000048381002400044004004440040A5
:10095000084400400C4400400404014004E100E06D
:100960004C10024000B4C404581002407C00002027
:100970000F4B104A596C186C12688842D2B2996CAD
:1009800010D010B472B6441C402C01F101011A546D
:1009900008BF00221C64996408BF1A6462B65DF83F
:1009A000044B70470029ECD0034B01221A607047BA
:1009B00030000020244400402C000020154B9A6C8D
:1009C00082B172B6586C411C4029596402F1FF3261
:1009D00008BF0021185C08BF59649A6462B60E4BC8
:1009E000186070470D4A0E49136823F0080313601E
:1009F0000B68590603D5136A43F040031362084B92
:100A00001B681B0604D5074A136843F010031360E4
:100A1000704700BF7C000020284400400044004094
:100A20001C4400401844004008B5084B1B681A06D7
:100A300008D4064B1B689B0600D408BDBDE80840DF
:100A4000FFF796BFFFF7BAFFF3E700BF1C44004073
:100A5000436C026C9A42836C0FD010B472B6541C73
:100A60000133402C04648154836404BF0023036475
:100A700062B600205DF8044B7047002BEDD00120DA
:100A8000704700BF826C034672B172B6406C411C65
:100A90004029596402F1FF3208BF0021185C08BFE9
:100AA00059649A6462B6704710467047806C70470C
:100AB000024B986C003018BF0120704730000020B6
:100AC000024B1868C0F3C000704700BF00440040EC
:100AD0000A4B1B687BB10378014653B110B54C1C1F
:100AE0000120FFF745FE23782146002BF7D1002097
:100AF00010BD002070474FF0FF307047C800002045
:100B0000154B1B6813B3012923DDF0B5134B864643
:100B100000204E1E07460EF1FF359A6C02B9FEE723
:100B200072B65C6C611C013A402959641C5D08BFB7
:100B30005F649A6462B60130B04205F8014F01D09B
:100B40000D2CEAD100230EF80030F0BD4FF0FF303D
:100B500070470020704700BFC80000203000002010
:100B6000092894BF30303730C0B2704700B585B027
:100B700000238DF80C300DF10B020DF1030100F094
:100B80000F03092BD4BF3033373302F801398A42BF
:100B90004FEA1010F3D101A8FFF79AFF05B05DF8F6
:100BA00004FB00BF014B986C704700BF3000002071
:100BB00008B5FFF771FB184A136843F4700313601C
:100BC000BFF34F8FBFF36F8F144B1549002203F112
:100BD000140043F8042B834241F8042BF9D1114946
:100BE000114B0A6842F002020A601A6842F04002A1
:100BF0001A601A6822F080021A604FF41650FFF74C
:100C00000FFEFFF785FB0948FFF7ACFB62B6FFF765
:100C1000B1FC30BFFDE700BF88ED00E0040000201C
:100C2000180000204C10024000040048400D030052
:100C300029159E3B95159E3C5F20ED3C95159E3CED
:100C400029159E3B0000803F0DA617C06A1814406E
:080C50006DFF86BF8BE03F3E03
:100C5800526561647920746F2066696C74657221CD
:100C68002020446961676E6F737469637320666FCF
:100C78006C6C6F773A0D0A000D0A414443315F49A5
:100C880053523A20000000000D0A414443315F49A5
:100C980045523A20000000000D0A414443315F43A9
:100CA800523A20000D0A414443315F434647523AC5
:100CB800200000000D0A414443315F434647523249
:100CC8003A2000000D0A414443315F44523A200063
:100CD8000D0A414443315F535152313A200000001C
:100CE8000D0A54494D325F4352313A20000000004A
:100CF8000D0A54494D325F4352323A200000000039
:100D08000D0A54494D325F534D43523A20000000BA
:100D18000D0A54494D325F444945523A20000000BB
:100D28000D0A54494D325F53523A20000D0A544976
:0C0D38004D315F4547523A20000000009A
:0400000508000000EF
:00000001FF
