:020000040800F2
:1000000000C000208D010008010200080102000864
:1000100001020008010200080102000801020008B4
:1000200001020008010200080102000801020008A4
:100030000102000801020008010200080102000894
:100040000102000801020008010200080102000884
:100050000102000801020008010200080102000874
:100060000102000801020008010200080102000864
:100070000102000801020008010200080102000854
:100080000102000801020008010200080102000844
:100090000102000801020008010200080102000834
:1000A0000102000801020008010200080102000824
:1000B0000102000801020008010200080102000814
:1000C0000102000801020008010200080102000804
:1000D0000102000801020008D90500080102000819
:1000E00001020008010200080102000801020008E4
:1000F00001020008010200080102000801020008D4
:1001000001020008010200080102000801020008C3
:1001100001020008010200080102000801020008B3
:1001200001020008010200080102000801020008A3
:100130000102000801020008010200080102000893
:100140000102000801020008010200080102000883
:100150000102000801020008010200080102000873
:100160000102000801020008010200080102000863
:100170000102000801020008010200080102000853
:1001800001020008010200080102000880B584B0E5
:1001900000AF164BFB60164BBB60164A144BD31ACC
:1001A0007B6007E0BB685A1CBA60FA68511CF960B2
:1001B00012781A707B685A1E7A60002BF2D10E4BAF
:1001C000BB600E4A0C4BD31A7B6004E0BB685A1C20
:1001D000BA6000221A707B685A1E7A60002BF5D133
:1001E00000F076F800BF1037BD4680BD1109000849
:1001F000000000200000002000000020A4000020DB
:1002000080B400AFFEE700BF80B483B000AF786079
:1002100000BF7B685A1E7A60002BFAD100BF0C37F2
:10022000BD4680BC704700BF80B400AF154A154B77
:100230001B6823F080731360134B144A1A60114A31
:10024000104B1B6843F08073136000BF0D4B1B689D
:1002500003F00073002BF9D00D4A0D4B1B6823F0FF
:10026000070313600A4A0A4B1B6843F00403136038
:10027000084A084B1B6843F00303136000BFBD46E8
:1002800080BC7047001002400C1002400150620315
:10029000002002400810024080B400AF0A4A0A4B16
:1002A0001B6843F002031360084A084B1B6843F0C5
:1002B00040031360054A054B1B6823F0800313605D
:1002C00000BFBD4680BC70474C100240000400488F
:1002D00080B586B000AFFFF7A7FFFFF7DDFF4FF453
:1002E000165000F0A5F80F4800F050FA00F03EFA62
:1002F0000346002BFAD03B1D1421184600F064FA87
:10030000094A094B1B6843F0080313603B1D18465C
:1003100000F03CFA044A044B1B6823F00803136006
:10032000E4E700BFE80800081404004890B585B071
:1003300000AF78603960174B1B68002B02D14FF07B
:10034000FF3323E00023FB6009E0FB685A1CFA60DE
:100350003A68D418104800F0D7F9034623707B6838
:10036000013B1A46FB689A4205D90B4800F0F2F9A6
:100370000346002BE9D1FB68002B06D03A68FB68E6
:10038000134400221A70FB6800E00023184614375B
:10039000BD4690BD9C0000200400002090B585B0B3
:1003A00000AF786039601E4B1B68002B02D14FF004
:1003B000FF3331E01B4800F0CDF9B860BB68C3F1F2
:1003C00040027B689A4202D26FF0010324E00023CE
:1003D000FB600AE03A68FB6813441B781946114831
:1003E00000F064F9FB680133FB607B68FA689A42AD
:1003F000F0D30D4B1B6803F00803002B0BD10A4A06
:10040000094B1B6843F008031360084C054800F0D3
:100410007BF903462360002318461437BD4690BD80
:100420009C00002050000020004400402844004070
:1004300080B485B000AF786072B6554B00229A64E4
:10044000534B9B6C524A5364514B5B6C504A136440
:10045000504B00229A644F4B9B6C4E4A53644D4B59
:100460005B6C4C4A13644C4B01221A604B4B0022CC
:100470001A604B4A4A4B1B6843F001031360494A18
:10048000484B1B6843F4003313604FF090424FF029
:1004900090431B6843F0004343F0200313604FF088
:1004A00090424FF090431B6823F0804313604FF05D
:1004B00090424FF090431B6823F0100313603A4AB8
:1004C000394B1B6843F0804343F010031360364AF6
:1004D000354B1B6823F000431360334A324B1B68D3
:1004E00023F020031360314A304B1B6843F4E06370
:1004F00013602E4A2D4B1B6823F4006313602C4AB3
:100500002B4B1B6843F040531360294A284B1B6850
:1005100023F040431360274BFB60FA687B6892FB33
:10052000F3F3FB60244A244B1B6823F4003313606D
:10053000224B00221A60224B00221A60214B00221B
:100540001A60214AFB6813601C4A1C4B1B6843F06D
:1005500064031360194A194B1B6843F001031360CD
:100560001A4A1A4B1B6843F000631360184A184B71
:100570001B6843F000631360164A164B1B6843F078
:100580004003136062B600BF1437BD4680BC70479D
:1005900004000020500000209C00002000000020EB
:1005A0004C100240581002400C0000482000004847
:1005B0002400004800B4C404381002400044004045
:1005C00004440040084400400C4400400004014042
:1005D0000404014004E100E080B500AF084B1B6853
:1005E00003F08003002B01D000F024F8044B1B68BB
:1005F00003F02003002B01D000F004F800BF80BD01
:100600001C44004080B500AF074B1B68DBB21946A5
:10061000064800F04BF80346002B02D0044B0122A1
:100620001A6000BF80BD00BF2444004004000020C9
:100630000000002098B500AF164800F08BF8034684
:10064000002B06D0144C134800F05EF803462360DC
:100650001DE0124A114B1B6823F008031360104B76
:100660001B6803F04003002B05D00E4A0D4B1B689E
:1006700043F0400313600A4B1B6803F08003002B18
:1006800005D0094A084B1B6843F01003136000BFF4
:1006900098BD00BF500000202844004000440040A6
:1006A0001C440040204400401844004080B483B003
:1006B00000AF78600B46FB707B681A6C7B685B6CE4
:1006C0009A4205D17B689B6C002B01D0012316E078
:1006D00072B67B681B6C591C7A6811647A68F97869
:1006E000D1547B689B6C5A1C7B689A647B681B6C3A
:1006F000402B02D17B6800221A6462B600231846A0
:100700000C37BD4680BC704780B485B000AF7860C0
:100710007B689B6C002B01D1002316E072B67B68CE
:100720005B6C591C7A6851647A68D35CFB737B6894
:100730005B6C402B02D17B6800225A647B689B6C07
:100740005A1E7B689A6462B6FB7B18461437BD4616
:1007500080BC704780B483B000AF78607B689B6CCE
:1007600018460C37BD4680BC704700BF80B500AF4F
:100770000548FFF7EFFF0346002B01D0012300E0FF
:100780000023184680BD00BF0400002080B582B061
:1007900000AF78600B4B1B68002B09D14FF0FF3383
:1007A0000BE07B685A1C7A6019460120FFF7F6FDC2
:1007B0007B681B78002BF4D1002318460837BD4610
:1007C00080BD00BF9C00002080B584B000AF786081
:1007D00039601A4B1B68002B02D14FF0FF3329E020
:1007E0000023FB600023FB7213E000BF1448FFF7F7
:1007F000B1FF0346002BF9D01148FFF785FF0346F0
:10080000FB72FB685A1CFA601A467B681344FA7A3A
:100810001A703B685A1EFB689A4202DDFB7A0D2B68
:10082000E3D1FB68002B04DDFB687A6813440022E7
:100830001A70FB6818461037BD4680BD9C0000202A
:100840000400002080B483B000AF78607B68002B88
:1008500007DB7B68092B04DC7B68DBB23033DBB25F
:1008600003E07B68DBB23733DBB218460C37BD469A
:1008700080BC704780B586B000AF786008237B618C
:1008800007F108027B69134400221A707B69013B5F
:100890007B6113E07B6803F00F031846FFF7D2FF7C
:1008A0000346194607F108027B6913440A461A7089
:1008B0007B681B097B607B69013B7B617B69002B4B
:1008C000E8DA07F108031846FFF760FF00BF1837A2
:1008D000BD4680BD80B500AF0248FFF73BFF034631
:0808E000184680BD0400002051
:1008E80052656164792E20205479706520736F6D8C
:1008F80065207465787420616E6420707265737306
:0909080020656E7465720D0A0091
:0400000508000000EF
:00000001FF
