:020000040800F2
:1000000000C00020D90100088D0100088D01000802
:100010008D0100088D0100088D0100088D01000888
:100020008D0100088D0100088D0100088D01000878
:100030008D0100088D0100088D0100088D01000868
:100040008D0100088D0100088D0100088D01000858
:100050008D0100088D0100088D0100088D01000848
:100060008D0100088D0100088D0100088D01000838
:100070008D0100088D0100088D0100088D01000828
:100080008D0100088D0100088D0100088D01000818
:100090008D0100088D0100088D0100088D01000808
:1000A0008D010008F10600088D0100088D0100088F
:1000B0008D0100088D0100088D0100088D010008E8
:1000C0008D0100088D0100088D0100088D010008D8
:1000D0008D0100088D010008ED0400088D01000865
:1000E0008D0100088D0100088D0100088D010008B8
:1000F0008D0100088D0100088D0100088D010008A8
:100100008D0100088D0100088D0100088D01000897
:100110008D0100088D0100088D0100088D01000887
:100120008D0100088D0100088D0100088D01000877
:100130008D0100088D0100088D0100088D01000867
:100140008D0100088D0100088D0100088D01000857
:100150008D0100088D0100088D0100088D01000847
:100160008D0100088D0100088D0100088D01000837
:100170008D0100088D0100088D0100088D01000827
:100180008D0100088D0100088D010008FEE70F4B6E
:100190001A6822F080721A600D4ADA601A6842F01A
:1001A00080721A601A46136813F0007FFBD0094B67
:1001B0001A6822F007021A601A6842F004021A60F4
:1001C000024A936843F003039360704700100240B3
:1001D000015062030020024008B5FFF7D8FF0C4829
:1001E0000C4BC01A08D01A460B4B184413F8011BCD
:1001F00002F8011B9842F9D1084A094B9A4204D0EF
:10020000002103F8011B9342FBD100F014F808BD54
:1002100004000020000000202E0F0008AC00002089
:100220000400002082B00190019B5A1E0192002B15
:10023000FAD102B0704708B50A4AD36C43F0020302
:10024000D364094B1A6842F040021A601A6822F01F
:1002500080021A604FF4165000F008F800F0D0F950
:1002600062B6FEE7001002400004004810B472B607
:10027000364B00229A645A641A64C3F89420C3F877
:100280009020C3F88C200121C3F89810C3F89C205B
:100290002F49CB6C43F00103CB648B6D43F40033E7
:1002A0008B654FF090431C6844F0004444F02004F8
:1002B0001C601C6824F080441C601C6824F010043E
:1002C0001C60DC6844F0804444F01004DC60DC68AE
:1002D00024F00044DC60DC6824F02004DC601C6A4C
:1002E00044F4E0641C621C6A24F400641C625C6ACE
:1002F00044F040545C625C6A24F040445C628B6B66
:1003000023F400338B63134B1A605A609A60124ACD
:1003100092FBF0F0D8601A6842F064021A601A6822
:1003200042F001021A6003F540431A6842F000628D
:100330001A605A6842F000625A60084A536843F0F3
:100340004003536062B610BC704700BF0400002039
:10035000001002400044004000B4C40400E100E08A
:10036000026C436C9A420ED072B6036C5A1C026443
:10037000C154836C01338364402A04BF00230364A7
:1003800062B600207047836C002BEDD001207047CF
:1003900008B5064B596AC9B20548FFF7E1FF18B125
:1003A000034B0122C3F89C2008BD00BF004400405D
:1003B000040000200346826C6AB172B6416C4A1C8C
:1003C0004264405C402A04BF00225A649A6C013A9D
:1003D0009A6462B6704700207047134BD3F8983088
:1003E000D3B12DE9F0418846012818D04E1E471E92
:1003F00000240D4DAB6C43B101342846FFF7DAFF02
:1004000006F8010FBC42F5D13C4654B1002308F870
:1004100004302046BDE8F0814FF0FF3070470020E7
:10042000F8E70020F6E700BF04000020174BD3F8E0
:10043000983023B3154BD3F89430C3F14003834273
:1004400020D370B548B14C1E2518114E14F8011F69
:100450003046FFF785FFAC42F8D10E4B1B6813F016
:10046000080F01D0002070BD0A4C236843F0080338
:1004700023600748FFF79EFFA0620020F3E74FF0DC
:10048000FF3070476FF00100704700BF040000208C
:10049000500000200044004008B5114BD3F89430C0
:1004A000C3B9104B1A6822F008021A60DB6913F016
:1004B000400F04D00B4A136A43F040031362094B08
:1004C000DB6913F0800F04D0064A936943F01003F0
:1004D000936108BD0448FFF76DFF024B9862F8E78F
:1004E00004000020004400405000002008B5084BE4
:1004F000DB6913F0800F05D1054BDB6913F0200F8A
:1005000003D108BDFFF7C8FFF6E7FFF741FFF8E7A3
:1005100000440040806C7047024B986C003818BF54
:10052000012070470400002038B50B4BD3F89830F9
:100530006BB1044603786BB1012521462846FFF7CD
:1005400075FF14F8013F002BF7D1002038BD4FF0A4
:10055000FF30FBE70020F9E704000020154BD3F83B
:10056000983003B32DE9F041804601291FDD441E78
:10057000861E0E440F4DC0F10207AB6C002BFDD060
:100580002846FFF717FF3B191A4604F8010FB4423B
:1005900001D00D28F1D1002A02DD002108F8031056
:1005A0001046BDE8F0814FF0FF3210467047002240
:1005B000F6E700BF04000020092894BF3030373030
:1005C000C0B2704770B584B0054600238DF80C307A
:1005D0000DF10B0401AE05F00F00FFF7EDFF2070E9
:1005E0002D09B44204F1FF34F5D101A8FFF79CFFB7
:1005F00004B070BD014B986C704700BF0400002030
:10060000384B1A6E42F400621A66DA6C42F003024A
:10061000DA644FF090431A6822F47C221A601A6858
:1006200042F428221A609A6842F47C229A601A6A7C
:1006300022F070421A621A6A42F080521A625A6AB2
:1006400022F47F6222F00F025A625A6A42F48872E0
:1006500042F001025A6203F580631A6822F0030235
:100660001A601A6842F002021A609A6842F00302A5
:100670009A601A6A22F00F021A621A6A42F00102A4
:100680001A62194B4FF47A62DA6200225A639A6353
:1006900046F66C419961196A41F055011962596C2D
:1006A00041F400415964196841F0840119605969A5
:1006B00041F001015961196821F002011960D968FE
:1006C00041F00101D9600948016841F00071016001
:1006D0001A665A6609229A621A6842F001021A6082
:1006E000704700BF00100240002C014000E100E014
:1006F000144A00231361144B1868144931F8101080
:1007000051631A6801321A601B68B3F57A7F02D30D
:100710000D4B00221A600E4B19680C4A32F811106A
:10072000084A91631A6801321A601B68B3F57A7F30
:1007300002D3074B00221A60064A536983F008036C
:1007400053617047002C0140A800002058070008A2
:08075000000000200004004835
:10075800D007DC07E907F50702080E081B08270879
:10076800340840084D085A08660873087F088C0842
:100778009808A508B108BE08CA08D608E308EF0813
:10078800FC080809150921092D093A0946095209E1
:100798005F096B097709840990099C09A809B409BC
:1007A800C109CD09D909E509F109FD09090A150A9F
:1007B800210A2D0A390A450A510A5D0A690A750A89
:1007C800800A8C0A980AA40AAF0ABB0AC70AD20A86
:1007D800DE0AE90AF50A000B0C0B170B230B2E0B8C
:1007E800390B450B500B5B0B660B710B7C0B880BA5
:1007F800930B9E0BA80BB30BBE0BC90BD40BDF0BD3
:10080800E90BF40BFF0B090C140C1E0C290C330C10
:100818003D0C480C520C5C0C660C710C7B0C850C66
:100828008F0C990CA30CAC0CB60CC00CCA0CD30CD6
:10083800DD0CE70CF00CF90C030D0C0D150D1F0D5C
:10084800280D310D3A0D430D4C0D550D5E0D670DFC
:100858006F0D780D810D890D920D9A0DA30DAB0DBD
:10086800B30DBB0DC40DCC0DD40DDC0DE40DEB0D9B
:10087800F30DFB0D030E0A0E120E190E210E280E93
:100888002F0E370E3E0E450E4C0E530E5A0E610EAD
:10089800670E6E0E750E7B0E820E880E8E0E950EEE
:1008A8009B0EA10EA70EAD0EB30EB90EBF0EC50E50
:1008B800CA0ED00ED50EDB0EE00EE60EEB0EF00ED5
:1008C800F50EFA0EFF0E040F090F0D0F120F170F7A
:1008D8001B0F200F240F280F2D0F310F350F390F45
:1008E8003D0F410F440F480F4C0F4F0F530F560F3A
:1008F800590F5D0F600F630F660F690F6C0F6E0F56
:10090800710F740F760F790F7B0F7D0F800F820F99
:10091800840F860F880F8A0F8B0F8D0F8F0F900F04
:10092800920F930F940F960F970F980F990F9A0F96
:100938009B0F9B0F9C0F9D0F9D0F9E0F9E0F9E0F51
:100948009E0F9E0F9F0F9E0F9E0F9E0F9E0F9E0F36
:100958009D0F9D0F9C0F9B0F9B0F9A0F990F980F40
:10096800970F960F940F930F920F900F8F0F8D0F75
:100978008B0F8A0F880F860F840F820F800F7D0FD1
:100988007B0F790F760F740F710F6E0F6C0F690F55
:10099800660F630F600F5D0F590F560F530F4F0F00
:1009A8004C0F480F440F410F3D0F390F350F310FD2
:1009B8002D0F280F240F200F1B0F170F120F0D0FCD
:1009C800090F040FFF0EFA0EF50EF00EEB0EE60EF1
:1009D800E00EDB0ED50ED00ECA0EC50EBF0EB90E38
:1009E800B30EAD0EA70EA10E9B0E950E8E0E880EA1
:1009F800820E7B0E750E6E0E670E610E5A0E530E2A
:100A08004C0E450E3E0E370E2F0E280E210E190ED7
:100A1800120E0A0E030EFB0DF30DEB0DE40DDC0DAB
:100A2800D40DCC0DC40DBB0DB30DAB0DA30D9A0D9C
:100A3800920D890D810D780D6F0D670D5E0D550DA9
:100A48004C0D430D3A0D310D280D1F0D150D0C0DD4
:100A5800030DF90CF00CE70CDD0CD30CCA0CC00C20
:100A6800B60CAC0CA30C990C8F0C850C7B0C710C80
:100A7800660C5C0C520C480C3D0C330C290C1E0CFB
:100A8800140C090CFF0BF40BE90BDF0BD40BC90B8F
:100A9800BE0BB30BA80B9E0B930B880B7C0B710B37
:100AA800660B5B0B500B450B390B2E0B230B170BEF
:100AB8000C0B000BF50AE90ADE0AD20AC70ABB0AC0
:100AC800AF0AA40A980A8C0A800A750A690A5D0A9C
:100AD800510A450A390A2D0A210A150A090AFD0987
:100AE800F109E509D909CD09C109B409A8099C0981
:100AF8009009840977096B095F09520946093A097F
:100B08002D09210915090809FC08EF08E308D6088A
:100B1800CA08BE08B108A50898088C087F08730899
:100B280066085A084D084008340827081B080E08AC
:100B38000208F507E907DC07D007C307B607AA07C5
:100B48009D079107840778076B075F0752074507DA
:100B580039072C07200713070707FA06EE06E106F0
:100B6800D506C906BC06B006A30697068A067E0601
:100B78007206650659064D064006340628061B0609
:100B88000F060306F705EB05DE05D205C605BA050F
:100B9800AE05A20596058A057E05720566055A0505
:100BA8004E05420536052A051F0513050705FB04F2
:100BB800F004E404D804CD04C104B604AA049F04D4
:100BC800930488047C04710466045A044F044404A2
:100BD80039042E04230417040C040104F703EC035E
:100BE800E103D603CB03C003B603AB03A00396030C
:100BF8008B03810376036C03620357034D0343039E
:100C080039032E0324031A0310030603FC02F3021C
:100C1800E902DF02D502CC02C202B802AF02A60284
:100C28009C0293028A02800277026E0265025C02CD
:100C380053024A0241023802300227021E021602FB
:100C48000D020502FC01F401EC01E401DB01D30112
:100C5800CB01C301BB01B401AC01A4019C01950106
:100C68008D0186017E0177017001680161015A01D9
:100C780053014C0145013E01380131012A0124018B
:100C88001D01170111010A010401FE00F800F2001C
:100C9800EC00E600E000DA00D500CF00CA00C4008E
:100CA800BF00B900B400AF00AA00A500A0009B00D7
:100CB800960092008D00880084007F007B007700FA
:100CC80072006E006A00660062005E005B005700FA
:100CD800530050004C004900460042003F003C00D1
:100CE80039003600330031002E002B002900260081
:100CF800240022001F001D001B001900170015000A
:100D08001400120010000F000D000C000B00090069
:100D180008000700060005000400040003000200A4
:100D280002000100010001000100010001000100B2
:100D3800010001000100010002000200030004009C
:100D48000400050006000700080009000B000C005D
:100D58000D000F00100012001400150017001900F4
:100D68001B001D001F0022002400260029002B0064
:100D78002E0031003300360039003C003F004200AD
:100D8800460049004C005000530057005B005E00CD
:100D9800620066006A006E00720077007B007F00C8
:100DA800840088008D00920096009B00A000A5009A
:100DB800AA00AF00B400B900BF00C400CA00CF0049
:100DC800D500DA00E000E600EC00F200F800FE00D2
:100DD80004010A01110117011D0124012A01310131
:100DE80038013E0145014C0153015A016101680176
:100DF800700177017E0186018D0195019C01A40196
:100E0800AC01B401BB01C301CB01D301DB01E40197
:100E1800EC01F401FC0105020D0216021E02270274
:100E28003002380241024A0253025C0265026E0235
:100E3800770280028A0293029C02A602AF02B802DD
:100E4800C202CC02D502DF02E902F302FC02060369
:100E580010031A0324032E03390343034D035703D6
:100E680062036C03760381038B039603A003AB0331
:100E7800B603C003CB03D603E103EC03F703010475
:100E88000C04170423042E04390444044F045A04A0
:100E9800660471047C04880493049F04AA04B604BD
:100EA800C104CD04D804E404F004FB0407051305C9
:100EB8001F052A05360542054E055A0566057205C1
:100EC8007E058A059605A205AE05BA05C605D205B2
:100ED800DE05EB05F70503060F061B062806340694
:100EE80040064D065906650672067E068A0697066E
:100EF800A306B006BC06C906D506E106EE06FA0644
:100F08000707130720072C073907450752075F070C
:100F18006B077807840791079D07AA07B607C307D9
:060F2800E8030000A00F29
:040F2E00FA000000C5
:0400000508000000EF
:00000001FF
