:020000040800F2
:1000000000C000208D010008010200080102000864
:1000100001020008010200080102000801020008B4
:1000200001020008010200080102000801020008A4
:100030000102000801020008010200080102000894
:100040000102000801020008010200080102000884
:100050000102000801020008010200080102000874
:100060000102000801020008010200080102000864
:100070000102000801020008010200080102000854
:100080000102000801020008010200080102000844
:100090000102000801020008010200080102000834
:1000A0000102000801020008010200080102000824
:1000B0000102000801020008010200080102000814
:1000C0000102000801020008010200080102000804
:1000D00001020008010200080102000801020008F4
:1000E00001020008010200080102000801020008E4
:1000F00001020008010200080102000801020008D4
:1001000001020008010200080102000801020008C3
:1001100001020008010200080102000801020008B3
:1001200001020008010200080102000801020008A3
:100130000102000801020008010200080102000893
:100140000102000801020008010200080102000883
:100150000102000801020008010200080102000873
:100160000102000801020008010200080102000863
:100170000102000801020008010200080102000853
:1001800001020008010200080102000880B584B0E5
:1001900000AF164BFB60164BBB60164A144BD31ACC
:1001A0007B6007E0BB685A1CBA60FA68511CF960B2
:1001B00012781A707B685A1E7A60002BF2D10E4BAF
:1001C000BB600E4A0C4BD31A7B6004E0BB685A1C20
:1001D000BA6000221A707B685A1E7A60002BF5D133
:1001E00000F022F800BF1037BD4680BD880200082D
:1001F000000000200000002000000020000000207F
:1002000080B400AFFEE700BF80B483B000AF786079
:1002100000BF7B685A1E7A60002BFAD100BF0C37F2
:10022000BD4680BC704700BF80B500AF124A124B7C
:100230001B6843F002031360104A104B1B6843F025
:10024000400313600D4A0D4B1B6823F080031360BD
:100250000B4A0B4B1B6843F0080313600948FFF778
:10026000D3FF074A064B1B6823F0080313600548B9
:10027000FFF7CAFFECE700BF4C1002400004004843
:0802800014040048A0860100EF
:0400000508000000EF
:00000001FF
