:020000040800F2
:1000000000C00020910100088D0100088D0100084A
:100010008D0100088D0100088D0100088D01000888
:100020008D0100088D0100088D0100088D01000878
:100030008D0100088D0100088D0100088D01000868
:100040008D0100088D0100088D0100088D01000858
:100050008D0100088D0100088D0100088D01000848
:100060008D0100088D0100088D0100088D01000838
:100070008D0100088D0100088D0100088D01000828
:100080008D0100088D010008C10300088D010008E2
:100090008D0100088D0100088D0100088D01000808
:1000A0008D0100088D0100088D0100088D010008F8
:1000B0008D0100088D0100088D0100088D010008E8
:1000C0008D0100088D0100088D0100088D010008D8
:1000D0008D0100088D010008F90700088D01000856
:1000E0008D0100088D0100088D0100088D010008B8
:1000F0008D0100088D0100088D0100088D010008A8
:100100008D0100088D0100088D0100088D01000897
:100110008D0100088D0100088D0100088D01000887
:100120008D0100088D0100088D0100088D01000877
:100130008D0100088D0100088D0100088D01000867
:100140008D0100088D0100088D0100088D01000857
:100150008D0100088D0100088D0100088D01000847
:100160008D0100088D0100088D0100088D01000837
:100170008D0100088D0100088D0100088D01000827
:100180008D0100088D0100088D010008FEE700BF09
:10019000094A0A48121A08B502D0094900F020FDA0
:1001A000084A0948121A02D0002100F0D9FDBDE822
:1001B000084000F0AFBD00BF00000020000000209C
:1001C000E80E0008A800002000000020704700BFD3
:1001D0000E4A0F4913680F4823F0807313600860BC
:1001E000136843F08073136013689B01FCD50A4BBE
:1001F0000A491A6822F007021A601A6842F00402DB
:100200001A600B6843F003030B6070470010024054
:100210000C1002400150620300200240081002400E
:100220000749084B0A6842F002020A601A6842F065
:1002300040021A601A6822F080021A60704700BFFC
:100240004C1002400004004830B4104D10482A6899
:100250001049114B4FF0904442F001022A6022688D
:1002600042F440722260026842F0005202600A6862
:1002700022F000520A601A6822F001021A601A681D
:1002800042F001021A6030BC704700BF4C100240BF
:10029000581002403810024000740040364B374A74
:1002A0001968F0B541F001014FF0904719603968C5
:1002B000334E344C344D41F0C0013960316841F067
:1002C00040513160196841F40051196023680027DA
:1002D00023F400534FF480064FF0805123601760E1
:1002E0002E601160136843F0004313601368002B05
:1002F000FCDB264C26492368264F274E274DDFF886
:10030000B8E043F0010323600B68254C23F00103A0
:100310000B604FF080430021196039603160202666
:100320002049B1FBF0F02860CEF8006021681E4F34
:100330001E4E1F4D1F48DFF884E041F0010121608F
:10034000196841F010011960196841F00101196044
:1003500004234FF40071C7F800E031602B6003689C
:1003600043F480230360136843F0010313601368B0
:1003700043F004031360F0BD4C1002400800045029
:10038000881002402C10024008030450581002400C
:100390003810024010000040280000402C000040AF
:1003A0001400004000B4C4040C0004503000045099
:1003B0000400045000E100E004000040C01600808A
:1003C0000A4B0B491A680B4870B40B4D0B4C42F0AA
:1003D000080208261A602E6022680A600A68026015
:1003E0001A6822F008021A6070BC704714040048B2
:1003F0000000002008740040000004504000045039
:1004000008B54C4800F0F8FA00F0EEFA0028FBD1ED
:10041000494800F0F1FA494B186800F075FB00F00C
:10042000E3FA0028FBD1464800F0E6FA454B18688D
:1004300000F06AFB00F0D8FA0028FBD1424800F037
:10044000DBFA424B186800F05FFB00F0CDFA0028A1
:10045000FBD13F4800F0D0FA3E4B186800F054FB47
:1004600000F0C2FA0028FBD13B4800F0C5FA3B4B34
:10047000186800F049FB00F0B7FA0028FBD13848B3
:1004800000F0BAFA374B186800F03EFB00F0ACFA07
:100490000028FBD1344800F0AFFA344B186800F064
:1004A00033FB00F0A1FA0028FBD1314800F0A4FA98
:1004B0004FF08043186800F027FB00F095FA002801
:1004C000FBD12C4800F098FA2B4B186800F01CFB6D
:1004D00000F08AFA0028FBD1284800F08DFA284B5A
:1004E000186800F011FB00F07FFA0028FBD12548C6
:1004F00000F082FA244B186800F006FB00F074FA52
:100500000028FBD1214800F077FA214B186800F051
:10051000FBFA00F069FA0028FBD11E4800F06CFAE3
:100520001D4B186800F0F0FA00F05EFA0028FBD1CD
:1005300008BD00BFFC0D0008240E00080000045098
:10054000340E000804000450440E00080800045053
:10055000500E00080C000450600E000810000450FB
:10056000700E0008400004507C0E0008300004505B
:100570008C0E00089C0E000804000040AC0E000821
:1005800008000040BC0E00080C000040CC0E000823
:1005900010000040D80E0008142C0140154B1B68B9
:1005A0002BB3013820D0144B9A6CF2B1F0B58E46C3
:1005B000002421460EF1FF3701E09A6C7AB1013434
:1005C00072B65E6C751C013A402D5D649E5D08BF7D
:1005D00059649A6462B6844207F8016FEDD1002332
:1005E0000EF804302046F0BD7047104670474FF0BB
:1005F000FF307047A000002008000020264B1B6839
:10060000002B43D0254BF0B59C6CC4F140028242D4
:100610003FD3D0B15F6C08444FF0000E0CE072B6CF
:10062000551C0134402D1D649C649E5408BFC3F8C2
:1006300040E062B6884208D01A6C11F8016B97420C
:10064000EDD1002CEBD08842F6D115490A6812F0A2
:10065000080219D1086840F0080008601CB9114B65
:1006600000201A60F0BD72B6586C411C402904F19C
:10067000FF345964185C08BF5A649C6462B6094B25
:1006800002461A600020F0BD0020F0BD4FF0FF30A0
:1006900070476FF00100F0BDA00000205400002062
:1006A00000440040284400402DE9F04372B6414B1D
:1006B000DFF834814049DFF8349199FBF0F04FF0D6
:1006C0000109C3F8009000230B60D8F800103B4CE0
:1006D000DFF81CC1A36441EA0901C8F80010DCF886
:1006E0000010636441F40031CCF800104FF09041E9
:1006F00023640C68DFF8FCE0314ACEF8483044F05F
:10070000004444F020040C600C68CEF8443024F01F
:1007100080440C600C68CEF8403024F010040C606B
:100720001468284E284D294F294944F0804444F04C
:1007300010041460146824F000441460146824F059
:10074000200414603268234C42F4E0623260326864
:1007500022F4006232602A681F4E42F040522A6042
:100760002A6822F040422A603A681C4D22F4003286
:100770003A600B602360336028600B681848194AA0
:1007800043F064030B600B6804F53F44FC3443EA18
:1007900009030B60236843F000632360036843F0A0
:1007A00000630360136843F04003136062B6BDE862
:1007B000F08300BFA00000200400002008000020FB
:1007C0000C00004820000048240000483810024077
:1007D0000044004004440040084400400C440040F1
:1007E0000404014004E100E04C10024000B4C404E1
:1007F0005810024054000020294B1A6810061CD4DF
:10080000274B1B689B0600D47047264B264A186C62
:1008100011689A6C10B45C6CA042C9B238D072B640
:10082000441C0132402C9A6408BF00221C641954F5
:1008300008BF1A6462B610BC70471C4A916CB1B90B
:100840001B490A6822F008020A601B68590604D591
:10085000184A136843F040031360114B1B681A06D3
:10086000CED5154A136843F010031360C8E772B67B
:10087000506C431C402B536401F1FF3108BF00232F
:10088000105C08BF5364916462B60C4B1860B7E704
:10089000002AC4D00A4B10BC01221A60CCE700BF6A
:1008A0001C44004008000020244400405400002064
:1008B00000440040204400401844004028440040C8
:1008C000040000200F4B104A596C186C12688842C3
:1008D000D2B2996C0FD010B472B6441C402C01F106
:1008E00001011A5408BF00221C64996408BF1A64ED
:1008F00062B610BC70470029EDD0044B01221A608B
:10090000704700BF0800002024440040040000207D
:10091000154B9A6C82B172B6586C411C40295964CF
:1009200002F1FF3208BF0021185C08BF59649A64C5
:1009300062B60E4B186070470D4A0E49136823F0DB
:10094000080313600B68590603D5136A43F040038C
:100950001362084B1B681B0604D5074A136843F053
:1009600010031360704700BF54000020284400406B
:10097000004400401C44004018440040436C026C9A
:100980009A42836C0ED010B472B6541C0133402CC2
:1009900004648154836404BF0023036462B60020AE
:1009A00010BC7047002BEED001207047826C0346CC
:1009B00072B172B6406C411C4029596402F1FF3299
:1009C00008BF0021185C08BF59649A6462B670477A
:1009D00010467047806C7047024B986C003018BF0F
:1009E0000120704708000020024B1868C0F3C000C7
:1009F000704700BF00440040244B1B68002B42D0CE
:100A0000F0B5234BDFF890C0224E471E4FF0000E8A
:100A100017F8010F00B3996C4029F9D01A6C5D6C7E
:100A2000AA421AD072B6541C0131402C1C6499643D
:100A3000985408BFC3F840E062B6326812F008026A
:100A4000E6D1306840F00800306079B9CCF8002079
:100A500017F8010F0028DED1F0BD0029E2D032687E
:100A60001207D5D4326842F00802326072B6681CB0
:100A7000402801F1FF3158645A5D08BFC3F844E0D3
:100A8000996462B6E2E74FF0FF307047A0000020A3
:100A9000540000200044004028440040154B1B68CF
:100AA00013B3012923DDF0B5134B864600204E1EFB
:100AB00007460EF1FF359A6C02B9FEE772B65C6C20
:100AC000611C013A402959641C5D08BF5F649A6447
:100AD00062B60130B04205F8014F01D00D2CEAD1C9
:100AE00000230EF80030F0BD4FF0FF3070470020BB
:100AF000704700BFA000002008000020092894BF14
:100B000030303730C0B27047F0B5040F85B0E2B274
:100B1000034602F1300104A83732092CD8BF0A4637
:100B200003F00F0600F80C2DF2B2C3F3031502F127
:100B300030013732092ED8BF0A46E9B2C3F3032485
:100B40008DF80B2001F130023731092DD8BF114645
:100B5000E5B2C3F3033E8DF80A1005F130013735D5
:100B6000092CD8BF0D46C3F303475FFA8EF2C3F3D7
:100B70000356FCB28DF80950C3F3036302F130054C
:100B80003732BEF1090FD4BFAE469646F1B2DAB2A3
:100B900004F1300537348DF808E0092FD8BF2C4612
:100BA00001F1300E02F1300537313732092BD4BF55
:100BB0002B461346092ED8BF714600228DF80740F8
:100BC0008DF806108DF805308DF80C20FFF714FF16
:100BD00005B0F0BD014B986C704700BF08000020C5
:100BE000844641EA000313F003036DD1403A41D338
:100BF00051F8043B40F8043B51F8043B40F8043BF7
:100C000051F8043B40F8043B51F8043B40F8043BE6
:100C100051F8043B40F8043B51F8043B40F8043BD6
:100C200051F8043B40F8043B51F8043B40F8043BC6
:100C300051F8043B40F8043B51F8043B40F8043BB6
:100C400051F8043B40F8043B51F8043B40F8043BA6
:100C500051F8043B40F8043B51F8043B40F8043B96
:100C600051F8043B40F8043B51F8043B40F8043B86
:100C7000403ABDD2303211D351F8043B40F8043B26
:100C800051F8043B40F8043B51F8043B40F8043B66
:100C900051F8043B40F8043B103AEDD20C3205D336
:100CA00051F8043B40F8043B043AF9D2043208D02E
:100CB000D2071CBF11F8013B00F8013B01D30B88A0
:100CC00003806046704700BF082A13D38B078DD07E
:100CD00010F003038AD0C3F10403D21ADB071CBF50
:100CE00011F8013B00F8013B80D331F8023B20F8BA
:100CF000023B7BE7043AD9D3013A11F8013B00F8F3
:100D0000013BF9D20B7803704B7843708B7883707A
:040D10006046704782
:100D140008B5FFF75BFA0E490E4B0A6842F002026F
:100D24000A601A6842F040021A601A6822F08002CF
:100D34001A604FF41650FFF7B5FCFFF783FA064824
:100D4400FFF7AAFA62B6FFF759FB30BFFDE700BF11
:0C0D54004C1002400004004840420F0018
:100D600070B4860746D0541E002A41D0CAB203464A
:100D700002E014F1FF343BD303F8012B9D07F8D1B7
:100D8000032C2ED9CDB245EA05250F2C45EA0545A1
:100D900019D903F110022646103E0F2E42F8105CBE
:100DA00042F80C5C42F8085C42F8045C02F1100264
:100DB000F2D8A4F1100222F00F0204F00F04103256
:100DC000032C13440DD91E462246043A032A46F842
:100DD000045BFAD8221F22F003020432134404F009
:100DE00003042CB1C9B21C4403F8011B9C42FBD183
:0C0DF00070BC704714460346C2E700BF09
:100DFC00526561647920746F2066696C7465722128
:100E0C002020446961676E6F737469637320666F29
:100E1C006C6C6F773A0D0A000D0A414443315F49FF
:100E2C0053523A20000000000D0A414443315F49FF
:100E3C0045523A20000000000D0A414443315F4303
:100E4C00523A20000D0A414443315F434647523A1F
:100E5C00200000000D0A414443315F4346475232A3
:100E6C003A2000000D0A414443315F44523A2000BD
:100E7C000D0A414443315F535152313A2000000076
:100E8C000D0A54494D325F4352313A2000000000A4
:100E9C000D0A54494D325F4352323A200000000093
:100EAC000D0A54494D325F534D43523A2000000015
:100EBC000D0A54494D325F444945523A2000000016
:100ECC000D0A54494D325F53523A20000D0A5449D1
:0C0EDC004D315F4547523A2000000000F5
:0400000508000000EF
:00000001FF
