:020000040800F2
:1000000000C00020910100088D0100088D0100084A
:100010008D0100088D0100088D0100088D01000888
:100020008D0100088D0100088D0100088D01000878
:100030008D0100088D0100088D0100088D01000868
:100040008D0100088D0100088D0100088D01000858
:100050008D0100088D0100088D0100088D01000848
:100060008D0100088D0100088D0100088D01000838
:100070008D0100088D0100088D0100088D01000828
:100080008D0100088D010008C50300088D010008DE
:100090008D0100088D0100088D0100088D01000808
:1000A0008D0100088D0100088D0100088D010008F8
:1000B0008D0100088D0100088D0100088D010008E8
:1000C0008D0100088D0100088D0100088D010008D8
:1000D0008D0100088D010008110800088D0100083D
:1000E0008D0100088D0100088D0100088D010008B8
:1000F0008D0100088D0100088D0100088D010008A8
:100100008D0100088D0100088D0100088D01000897
:100110008D0100088D0100088D0100088D01000887
:100120008D0100088D0100088D0100088D01000877
:100130008D0100088D0100088D0100088D01000867
:100140008D0100088D0100088D0100088D01000857
:100150008D0100088D0100088D0100088D01000847
:100160008D0100088D0100088D0100088D01000837
:100170008D0100088D0100088D0100088D01000827
:100180008D0100088D0100088D010008FEE700BF09
:10019000094A0A48121A08B502D0094900F03AFD86
:1001A000084A0948121A02D0002100F0F3FDBDE808
:1001B000084000F0C9BD00BF000000200000002082
:1001C0001C0F0008A800002000000020704700BF9E
:1001D0000E4A0F4913680F4823F0807313600860BC
:1001E000136843F08073136013689B01FCD50A4BBE
:1001F0000A491A6822F007021A601A6842F00402DB
:100200001A600B6843F003030B6070470010024054
:100210000C1002400150620300200240081002400E
:100220000749084B0A6842F002020A601A6842F065
:1002300040021A601A6822F080021A60704700BFFC
:100240004C1002400004004830B4104D10482A6899
:100250001049114B4FF0904442F001022A6022688D
:1002600042F440722260026842F0005202600A6862
:1002700022F000520A601A6822F001021A601A681D
:1002800042F001021A6030BC704700BF4C100240BF
:10029000581002403810024000740040374B384A72
:1002A0001968F0B541F001014FF0904719603968C5
:1002B000344E354C354D41F0C0013960316841F064
:1002C00040513160196841F40051196023680027DA
:1002D00023F400534FF480064FF0805123601760E1
:1002E0002E601160136843F00043136013682449C3
:1002F000002BFBDB264C274A2368274F274E284D2F
:10030000DFF8B8E043F0010323601368254C23F0C5
:10031000010313604FF0804300221A603A6032609C
:100320002026214AB2FBF0F02860CEF80060226857
:100330001E4F1F4E1F4D2048DFF884E042F001029F
:1003400022601A6842F010021A601A6842F0010234
:100350001A6004234FF40072C7F800E032602B608B
:10036000036843F4802303600B6843F001030B60D0
:100370000B6843F004030B60F0BD00BF4C1002405B
:1003800008000450881002402C100240080304505A
:100390005810024038100240100000402800004071
:1003A0002C0000401400004000B4C4040C000450B1
:1003B000300004500400045000E100E0040000405C
:1003C000C01600800C4B0D491A680D4870B40D4DD5
:1003D0000D4C082642F008021A602E601A6832435B
:1003E0001A6022680A600A6802601A6822F008022D
:1003F0001A6070BC704700BF140400480000002061
:1004000008740040000004504000045008B54C48F7
:1004100000F000FB00F0F6FA0028FBD1494800F09C
:10042000F9FA494B186800F089FB00F0EBFA002854
:10043000FBD1464800F0EEFA454B186800F07EFB11
:1004400000F0E0FA0028FBD1424800F0E3FA424B0A
:10045000186800F073FB00F0D5FA0028FBD13F4884
:1004600000F0D8FA3E4B186800F068FB00F0CAFABA
:100470000028FBD13B4800F0CDFA3B4B186800F058
:100480005DFB00F0BFFA0028FBD1384800F0C2FA4B
:10049000374B186800F052FB00F0B4FA0028FBD18B
:1004A000344800F0B7FA344B186800F047FB00F00E
:1004B000A9FA0028FBD1314800F0ACFA4FF0804394
:1004C000186800F03BFB00F09DFA0028FBD12C4897
:1004D00000F0A0FA2B4B186800F030FB00F092FA05
:1004E0000028FBD1284800F095FA284B186800F046
:1004F00025FB00F087FA0028FBD1254800F08AFA96
:10050000244B186800F01AFB00F07CFA0028FBD19D
:10051000214800F07FFA214B186800F00FFB00F033
:1005200071FA0028FBD11E4800F074FA1D4B1868C0
:1005300000F004FB00F066FA0028FBD108BD00BF04
:10054000300E0008580E000800000450680E000825
:1005500004000450780E000808000450840E0008BF
:100560000C000450940E000810000450A40E000863
:1005700040000450B00E000830000450C00E0008C7
:10058000D00E000804000040E00E00080800004003
:10059000F00E00080C000040000F000810000040A2
:1005A0000C0F0008142C0140174B1B6843B30128A3
:1005B00024D0164A936C0BB3F0B500240138A4463E
:1005C0004F1E964602E0DEF848309BB1013472B609
:1005D000566C751C013B402D5564965D08BFCEF8E6
:1005E00044C0936462B6844207F8016FEBD10023E4
:1005F0000B54F0BD204600230B54F0BD0020704783
:100600004FF0FF30704700BFA0000020080000201E
:10061000274B1B68002B45D0264BF0B59C6CC4F1D2
:100620004002824241D3D8B15F6C08449C464FF0EF
:10063000000E0CE072B6551C0134402D1D649C6404
:100640009E5408BFCCF840E062B6884208D01A6CCD
:1006500011F8016BBA42EDD1002CEBD08842F6D1F3
:1006600015490A6812F008021AD1086840F008001B
:1006700008601CB9114B00201A60F0BD72B6596CAD
:100680000C4D585C0131402904F1FF3459649C64DD
:1006900008BF6A6462B6094B02461A600020F0BDCA
:1006A0000020F0BD4FF0FF3070476FF00100F0BD4B
:1006B000A0000020540000200044004028440040D6
:1006C0002DE9F04372B6414BDFF834814049DFF841
:1006D000349199FBF0F04FF00109C3F8009000232A
:1006E0000B60D8F800103B4CDFF81CC1A36441EA52
:1006F0000901C8F80010DCF80010636441F400310F
:10070000CCF800104FF0904123640C68DFF8FCE057
:10071000314ACEF8483044F0004444F020040C60E4
:100720000C68CEF8443024F080440C600C68CEF89D
:10073000403024F010040C601468284E284D294FD6
:10074000294944F0804444F010041460146824F0F3
:1007500000441460146824F0200414603268234CB0
:1007600042F4E0623260326822F4006232602A6849
:100770001F4E42F040522A602A6822F040422A600E
:100780003A681C4D22F400323A600B6023603360FB
:1007900028600B681848194A43F064030B600B6823
:1007A00004F53F44FC3443EA09030B60236843F03B
:1007B00000632360036843F000630360136843F041
:1007C0004003136062B6BDE8F08300BFA0000020C4
:1007D00004000020080000200C0000482000004811
:1007E0002400004838100240004400400444004007
:1007F000084400400C4400400404014004E100E0CF
:100800004C10024000B4C4045810024054000020B0
:10081000294B1A6810061CD4274B1B689B0600D472
:100820007047264B264A186C126810B45C6CA042C4
:10083000D1B29A6C38D072B60132441C9A641C64EE
:10084000402C19541D4B04BF00221A6462B610BC20
:1008500070471C498A6CB2B91B490A6822F0080229
:100860000A601B68590604D5184A136843F0400310
:100870001360114B1B681A06CED5154A136843F056
:1008800010031360C8E772B6486C431C402B4B64DE
:1008900002F1FF3208BF0023085C08BF4B648A6482
:1008A00062B60C4B1860B7E7002AC4D00A4B10BCE4
:1008B00001221A60CCE700BF1C4400400800002061
:1008C00024440040540000200044004020440040E4
:1008D0001844004028440040040000200F4B104AF8
:1008E000596C186C1268884210B4D2B2996C0DD051
:1008F00072B6441C01311A541C64402C9964074B95
:1009000004BF00221A6462B610BC70470029EFD001
:10091000044B10BC01221A60704700BF0800002081
:100920002444004004000020154B9A6C82B172B63A
:10093000586C411C4029596402F1FF3208BF002164
:10094000185C08BF59649A6462B60E4B1860704711
:100950000D4A0E49136823F0080313600B6859060B
:1009600003D5136A43F040031362084B1B681B0650
:1009700004D5074A136843F010031360704700BFA3
:100980005400002028440040004400401C44004023
:1009900018440040436C026C9A4210B4836C0DD032
:1009A00072B6541C0133402C04648154836404BF28
:1009B0000023036462B6002010BC7047002BEFD008
:1009C000012010BC704700BF836C73B172B6416CDC
:1009D0004A1C402A426408BF0022415C08BF4264AE
:1009E0005A1E826462B6084670471846704700BFB8
:1009F000806C7047024B986C003018BF0120704724
:100A000008000020024B1868C0F3C000704700BF08
:100A100000440040264B1B68002B46D025492DE999
:100A2000F041DFF89880244F00F1FF3E0E464FF072
:100A3000000C1EF8010F00B38A6C402AF9D0336C09
:100A4000756CAB421BD072B65C1C0132402C0C643E
:100A50008A64C85408BFC1F840C062B63B6813F04E
:100A60000803E6D1386840F00800386082B9C8F859
:100A700000301EF8010F0028DED1BDE8F081002A09
:100A8000E1D03B681B07D4D43B6843F008033B60CC
:100A900072B6681C402802F1FF3248644B5D08BF03
:100AA000C1F844C08A6462B6E1E74FF0FF30704796
:100AB000A0000020540000200044004028440040D2
:100AC000194B1B6853B301292BDDF0B5174E0024D9
:100AD00001F1FF3E3246A446471EB36C03B9FEE760
:100AE00072B6556C691C013B40295164555D08BFC5
:100AF000C2F844C0B36462B60134A64507F8015F8A
:100B000002D00D2DE9D1A646BEF1000F04DD002371
:100B100000F80E307046F0BD7046F0BD4FF0FF306B
:100B200070470020704700BFA00000200800002090
:100B3000092894BF30303730C0B27047F0B5040F89
:100B400085B00346E2B203F00F0604A802F13001BB
:100B50003732092CC8BF1146F2B2C3F3031500F8AF
:100B60000C1D02F130013732092ED8BF0A46E9B216
:100B7000C3F303248DF80B2001F130023731092D26
:100B8000D8BF1146E5B2C3F3033E8DF80A1005F154
:100B900030013735092CD8BF0D46C3F303475FFA40
:100BA0008EF2C3F30356FCB28DF80950C3F303630E
:100BB00002F130053732BEF1090FD4BFAE4696467A
:100BC000F1B2DAB204F1300537348DF808E0092FBC
:100BD000D8BF2C4601F1300E02F1300537313732E3
:100BE000092BD4BF2B461346092ED8BF71460022CD
:100BF0008DF807408DF806108DF805308DF80C2023
:100C0000FFF708FF05B0F0BD014B986C704700BFBF
:100C100008000020844641EA000313F003036DD16D
:100C2000403A41D351F8043B40F8043B51F8043BAF
:100C300040F8043B51F8043B40F8043B51F8043BB6
:100C400040F8043B51F8043B40F8043B51F8043BA6
:100C500040F8043B51F8043B40F8043B51F8043B96
:100C600040F8043B51F8043B40F8043B51F8043B86
:100C700040F8043B51F8043B40F8043B51F8043B76
:100C800040F8043B51F8043B40F8043B51F8043B66
:100C900040F8043B51F8043B40F8043B51F8043B56
:100CA00040F8043B403ABDD2303211D351F8043BF6
:100CB00040F8043B51F8043B40F8043B51F8043B36
:100CC00040F8043B51F8043B40F8043B103AEDD2A5
:100CD0000C3205D351F8043B40F8043B043AF9D2F6
:100CE000043208D0D2071CBF11F8013B00F8013BC9
:100CF00001D30B8803806046704700BF082A13D3D6
:100D00008B078DD010F003038AD0C3F10403D21AED
:100D1000DB071CBF11F8013B00F8013B80D331F821
:100D2000023B20F8023B7BE7043AD9D3013A11F8A1
:100D3000013B00F8013BF9D20B7803704B7843700C
:080D40008B7883706046704758
:100D480008B5FFF741FA0E490E4B0A6842F0020255
:100D58000A601A6842F040021A601A6822F080029B
:100D68001A604FF41650FFF7A7FCFFF769FA064818
:100D7800FFF790FA62B6FFF745FB30BFFDE700BF0B
:0C0D88004C1002400004004800093D002F
:100D940070B4840746D0541E002A41D0CDB2034615
:100DA40002E0621EE4B3144603F8015B9A07F8D12B
:100DB400032C2ED9CDB245EA05250F2C45EA05456D
:100DC40019D903F110022646103E0F2E42F8105C8A
:100DD40042F80C5C42F8085C42F8045C02F1100230
:100DE400F2D8A4F1100222F00F0204F00F04103222
:100DF400032C13440DD91E462246043A032A46F80E
:100E0400045BFAD8221F22F003020432134404F0D4
:100E140003042CB1C9B21C4403F8011BA342FBD147
:0C0E240070BC704714460346C2E700BFD4
:100E3000526561647920746F2066696C74657221F3
:100E40002020446961676E6F737469637320666FF5
:100E50006C6C6F773A0D0A000D0A414443315F49CB
:100E600053523A20000000000D0A414443315F49CB
:100E700045523A20000000000D0A414443315F43CF
:100E8000523A20000D0A414443315F434647523AEB
:100E9000200000000D0A414443315F43464752326F
:100EA0003A2000000D0A414443315F44523A200089
:100EB0000D0A414443315F535152313A2000000042
:100EC0000D0A54494D325F4352313A200000000070
:100ED0000D0A54494D325F4352323A20000000005F
:100EE0000D0A54494D325F534D43523A20000000E1
:100EF0000D0A54494D325F444945523A20000000E2
:100F00000D0A54494D325F53523A20000D0A54499C
:0C0F10004D315F4547523A2000000000C0
:0400000508000000EF
:00000001FF
